:020000041000EA
:1000000000B5324B212058609868022188439860DF
:10001000D860186158612E4B002199600221596106
:100020000121F02299502B49196001219960352056
:1000300000F044F80222904214D00621196600F024
:1000400034F8196E01211966002018661A6600F04E
:100050002CF8196E196E196E052000F02FF8012189
:100060000842F9D1002199601B49196000215960AB
:100070001A491B48016001219960EB211966A021F2
:10008000196600F012F800219960164914480160C1
:100090000121996001BC002800D000471248134993
:1000A000086003C880F30888084703B5996A0420EC
:1000B0000142FBD001200142F8D103BD02B5186610
:1000C0001866FFF7F2FF186E186E02BD00000240BE
:1000D000000000180000070000035F00212200005C
:1000E000F4000018222000A00001001008ED00E03C
:1000F00000000000000000000000000074B24E7A12
:1001000000200420F7010010C3010010C5010010F9
:10011000C1010010C1010010C1010010C101001097
:10012000C1010010C1010010C1010010C701001081
:10013000C1010010C1010010C9010010CB01001065
:10014000CD010010CD010010CD010010CD01001037
:10015000CD010010CD010010CD010010CD01001027
:10016000CD010010CD010010CD010010CD01001017
:10017000CD010010CD010010CD010010CD01001007
:10018000CD010010CD010010CD010010CD010010F7
:10019000CD010010CD010010CD010010CD010010E7
:1001A000CD010010CD010010CD010010CD010010D7
:1001B000CD010010CD010010CD010010CD010010C7
:1001C00000BE00BE00BE00BE00BE00BEEFF3058054
:1001D000103800BEF2EB8871E86E00100C6F001052
:1001E0003802001090A31AE71E481F49086006C88D
:1001F00081F3088810471D480068002801D019487D
:10020000F3E70DA40ECC002902D000F012F8F9E7B4
:100210001749184A002000E001C19142FCD116495B
:100220008847164988471649884700BEFDE701C937
:1002300001C29A42FBD370470C6F0010C00000202F
:10024000A8390020F4A700100000042000000420BA
:10025000F4A700100010042000100420000000008B
:10026000704700000000000008ED00E0000000D032
:10027000A8390020B84B002095300010551200100E
:100280008D300010F8B5C04606480749091A8B1092
:10029000C90FC91810B5491003D0044B002B00D06A
:1002A000984710BDA8390020A839002000000000A0
:1002B000054B10B5002B03D00449054800E000BFF2
:1002C000FFF7E2FF10BDC04600000000544A0020C6
:1002D0000C68001010B5162001F036F8D0238022EB
:1002E0001B06D2039A6201210022162001F018F8A1
:1002F00010BDC046F0B5DE46454657464E46E0B511
:1003000083B00C00050006F085F8019001308000F4
:1003100002F056FE8046032C67D0354CA36E9946FA
:10032000019B002B1CD0E818FF239A46314B2A0072
:10033000414603259C46304E1378F75C2F40022F30
:1003400002D15746203B3B40213B392B03D867461F
:100350009B00FB589F464B46013208C19042EBD1AF
:10036000019B4A469F0040464346FA5003B0F0BC0A
:10037000BB46B246A946A046F0BD636EECE7236ECD
:10038000EAE7E36DE8E7A36DE6E7636DE4E7236D75
:10039000E2E7E36CE0E7A36CDEE7636CDCE7236C89
:1003A000DAE7E36BD8E7A36BD6E7636BD4E7236B9D
:1003B000D2E7E36AD0E7A36ACEE7636ACCE7236AB1
:1003C000CAE7E369C8E7A369C6E76369C4E72369C5
:1003D000C2E7E368C0E7A368BEE76368BCE72368D9
:1003E000BAE7236FB8E7E36EB6E7044C96E7C0467A
:1003F000301D002010680010E56D0010980F0020DF
:1004000082B0F0B5DE4657464E464546F021E0B58F
:100410007026CFB000AF8919C9190A60F4228E2561
:100420009219D2196D001360AB19DB191968040019
:10043000FFF760FF7860200005F0ECFF831CBB66CF
:10044000AB19DB191B68032B03D00522AB19DB1991
:100450001A608E2570266D00AB19DA191268BB6E12
:10046000002153439C46DC007B649A006B46624447
:10047000D2009B1A9D4618003B66BC6102F0BEFD8F
:10048000E208AB193A62DA191268A346D200904624
:100490000022914692464B46DC003B6E05259C4669
:1004A00053467A689B00D658644431002000424687
:1004B000013D02F0A9FD5C444644002DF5D1012325
:1004C00070229C461C33FF339B18DB191B68E244E7
:1004D0009C46BB6EE1445345DDDC862470253A6EB4
:1004E0000126944664006319DB191B68386A1033CF
:1004F0009E4043013B61283B63448446BB6243000A
:100500007B6163449446283A7A630222DB00283BED
:100510006344FB620301FB60283B634452423B633C
:10052000FA63BB6901323A64043A283B7A62753255
:10053000924663446219BB63D2198423126829006E
:10054000151DBC22E346B0465B005B18DB191B6837
:100550005200BA18BA441360BD60C8220021504648
:1005600002F04CFD7A6A002A00DA44E251467B6BC5
:100570001A685B680A604B607B6A581C7B6C83421C
:1005800001DD00F097FD0022002351468A60CB6018
:100590007B6A991C7B6C8B4201DD00F0C3FC00225E
:1005A00000235446226163617B6CFA6B934201DD48
:1005B00000F0B3FC002200235446A261E3617B6C8F
:1005C0003A6C934200DDAFE30022002354462262DE
:1005D0006362BB6B1A685B68A262E3627B6C8342F6
:1005E00001DD00F07FFD0022002354462263636397
:1005F0007B6C8B4201DD00F0AEFC002200235446F0
:10060000A263E3637B6CFA6B934201DD00F08FFC25
:10061000002200235446226463647B6C3A6C93424C
:1006200000DD7DE3002200235446A264E3643B6BBB
:100630001A685B68226563657B6C834201DD00F0AC
:100640004CFD002200235446A265E3657B6C8B427F
:1006500001DD00F08FFC0022002354462266636611
:100660007B6CFA6B934201DD00F07FFC00220023DB
:100670005446A266E3667B6C3A6C934200DD57E316
:1006800000220023544622676367FB6A1A685B688E
:10069000A267E3677B6C834201DD00F019FD002255
:1006A0000023802470256419E419226063607B6C48
:1006B0008B4201DD00F054FC0022002388247025C9
:1006C0006419E419226063607B6CFA6B934201DD6C
:1006D00000F032FC00220023902470256419E419F4
:1006E000226063607B6C3A6C934200DD14E300226D
:1006F0000023702598246419E41922606360A02403
:10070000BB6A6419E4191A685B68226063607B6CD9
:10071000834201DD00F0D7FC00220023A8207024D2
:100720000019C019026043607B6C8B4201DD00F050
:100730000DFC00220023B02170200918C9190A609D
:100740004B607B6CFA6B934201DD00F0FAFB0022F8
:100750000023B82170200918C9190A604B607B6C0E
:100760003A6C934200DDD3E2002200237020C021C6
:100770000918C9190A604B60F0231B18DB191C68A3
:100780005D68F8231B188821DB191A685B68BA6456
:10079000FB64B823490009185B000600FB18C81960
:1007A0001A685B6841680068BA66FB66002200232D
:1007B00002F0C2FA00220023002811D1882149004A
:1007C0008919C819D04B4168006802F0BBFA0028AB
:1007D00000D073E1882149008B19DB191A685B6826
:1007E0003A667B6620000022C84B290002F0AAFA74
:1007F0000022C64B002800D1CFE0B86EF96E02F09F
:10080000A1FA0022C14B002800D181E1B86CF96C3B
:1008100002F098FA0024BD4D002800D151E12000DB
:10082000BA4B0022290002F02EFA0023B64CB8651C
:10083000F9653B657C650023B34CBB64FC645A4698
:100840000023FA61BC229946BB6845469B009B4643
:100850005200BA18166805214846494202F0B8F914
:100860000521031D04004846984602F0B1F9022311
:100870009C43033401D00233591A00224346944664
:100880009B0043445B18DB00BC449B1863445C6FD3
:100890001B6F1800BA6CFB6C2100B866F96602F099
:1008A0000CFA3A6E7B6E02F008FA0022974B02F0C7
:1008B00004FA02F069FABA6DFB6D0406B86EF96EBF
:1008C00002F0FBF93A6E7B6E02F0F7F900228F4BD3
:1008D00002F0F3F902F058FABA6EFB6EC0B20004EF
:1008E0000443386D796D02F0E8F93A6E7B6E02F0E0
:1008F000E4F90022854B02F0E0F902F045FAC0B2BB
:100900000002044373681D42FCD15B469C510123E5
:100910009C46E1444B46192B9DD1FB69A8469B465A
:10092000BC235B00FB181E60D0231B065B685B02C8
:1009300001D400F0C4FB8C2370225B009B18DB19F0
:10094000186801F021FBBA6A7B6A0832BA623A6C15
:10095000013301323A64FA6A7B620832FA623A6B16
:1009600008323A63BA6B0832BA637A6B08327A6338
:10097000FA6B0132FA637A6C9A4200D0EDE578683E
:1009800002F030FBBD464FB0F0BCBB46B246A946B4
:10099000A046F0BC08BC02B01847B86EF96E02F071
:1009A000D1F90022594B002800D1CDE0B86CF96C88
:1009B00002F0C8F9002800D183E0002200232000C3
:1009C000290002F0B9F9002800D128E700234F4C94
:1009D00018002100BB66FC664C4B002202F053F964
:1009E0000023494C38657965BB64FC64002300240E
:1009F000BB65FC6523E7531C00D1D9E0931C00D0F4
:100A0000A9E151465B461A685B680A614B615B4627
:100A10009A68DB688A61CB617B6C3A6C934200DD3B
:100A2000EAE10024002550460C624D62B969702647
:100A300059440A684B688263C3638A68CB68F96863
:100A40000264436459440A684B68026643668A68D4
:100A5000CB688266C3663B6A8464C5649C4604674F
:100A600045678820796986196144C9005944F0199D
:100A70000A684B68026043608A68CB6870209021E6
:100A80000918C9190A604B60982306001B183969B8
:100A9000403086195944DB19F0191C605D600A6802
:100AA0004B68026043608A68CB687020B8210918DF
:100AB000C9190A604B6022002B0057E60022124B36
:100AC0008EE6002200232000290002F035F90028DC
:100AD00000D031E1200029000C4B002202F0D3F8B5
:100AE0000023094CB865F9653B657C65B86CF96C09
:100AF0000022002302F020F9002800D122E1002387
:100B00000024BB64FC649AE60000F03F00E06F4004
:100B1000B86CF96C02F016F90023B54CBB65FC65A6
:100B2000002837D0B86EF96E0022002302F004F9D5
:100B3000002800D153E10023AD4CBB64FC640023CA
:100B400000243B657C657AE6B86CF96C02F0FAF833
:100B500000220023002812D02000290002F0ECF827
:100B60000022002800D1A6E1B86EF96E002302F041
:100B7000E3F8002800D0E2E0B86EF96E2CE7200020
:100B8000290002F0D9F8002800D159E200230024FE
:100B9000BB65FC65B86EF96E0022002302F0CCF84C
:100BA000002800D17EE1002300243B657C659DE7A1
:100BB00051465B461A685B688A60CB605B469A6800
:100BC000DB680A614B617B6CFA6B934200DD4FE29C
:100BD000002400257B6C3A6C8C61CD61934200DC73
:100BE000E6E17B6B1A6A5B6A514650460A624B62C9
:100BF000B969002459440A684B68026343638A68F0
:100C0000CB688263C3637B6CFA6B0025934200DD83
:100C10004CE253463A6C1C645D647B6C934200DC8E
:100C2000DCE1BB6B1A6A5B6A514650468A64CB644E
:100C3000F96859440A684B688265C3658A68CB685D
:100C4000026643667B6CFA6B934200DD21E2002270
:100C50000023796C8266C366386C814200DC8EE1C9
:100C60003B6B1A6A5B6A51460A674B673B6A7024A2
:100C70009C468020796900196144C9005944C01913
:100C80000A684B68026043608A68CB68882109194A
:100C9000C9190A604B607B6CFA6B934200DDF4E18A
:100CA00000220023902170200918C9190A604B60A6
:100CB0007B6C3A6C934200DD93E170269823A82068
:100CC0000024002539699B1980195944DB19C01982
:100CD0001C605D600A684B68026043608A68CB688C
:100CE000B0218919C9190A604B607B6CFA6B934279
:100CF00000DC9DE1B8217020BB6A0918C9199A6906
:100D0000DB690A604B607B6C3A6C934200DC2BE53C
:100D1000BB6A1A6A5B6A29E5FB6A1A6A5B6AE8E4DD
:100D2000BB6B1A6A5B6A7FE47B6B1A6A5B6A4DE491
:100D30003B6B1A6A5B6AA5E400200021CCE6002028
:100D4000002149E6B86CF96C00222A4B01F09BFFA8
:100D5000B864F96473E5D31C00D0B4E051465B4637
:100D60001A685B688A61CB615B4650469A68DB68AB
:100D70000A624B62B969702459440A684B6802647C
:100D800043648A68CB68F9688264C36459440A681A
:100D90004B688266C3668A68CB68026743673B6AB2
:100DA00090209C46796900196144C9005944C019D2
:100DB0000A684B68026043608A68CB689821B82053
:100DC0000919C9190A604B60396900195944C019D9
:100DD0000A684B68026043608A68CB68C6E40022F8
:100DE000B86EF96E034B01F04EFF3865796522E568
:100DF0000000F03F00E06F4050467B6B70241A6AA1
:100E00005B6A0A624B62B96959440A684B6882633B
:100E1000C3638A68CB68F96802644364BB6B594456
:100E20001A6A5B6A8264C3640A684B680266436636
:100E30008A68CB688266C3663B6B79691A6A5B6AAB
:100E4000026743673B6A88209C466144C9000019D9
:100E50005944C0190A684B68026043608A68CB68CD
:100E600090210919C9190A604B609821B020FB6ACA
:100E70000919C9191A6A5B6A0A604B603969001955
:100E80005944C0190A684B68026043608A68CB689D
:100E9000B8210919C9190A604B60BB6A1A6A5B6AF2
:100EA000FFF764FC0022B86EF96E914B01F0EBFE87
:100EB000386579651AE6200029008D4B01F0E3FEC4
:100EC000B865F9652EE6131D00D0C2E051465B46B9
:100ED00050461A685B680A624B62396ACB005B4411
:100EE0001A685B688264C364FB688C465B441A685A
:100EF0005B6898210267436770207B690918634427
:100F0000DB005B44C9191A685B680A604B603B6987
:100F10005B441A685B68FFF729FC7B6B9A69DB69A5
:100F2000FFF74AFB7B6B1A695B69FFF73AFBBB6B08
:100F30009A69DB69FFF76EFBFB6A9A69DB69FFF769
:100F4000CBFBBB6A9A69DB69FFF703FCBB6A1A69D2
:100F50005B69FFF7F0FBBB6B1A695B69FFF74FFB3F
:100F6000FB6A1A695B69FFF7A9FB3B6B9A69DB694E
:100F7000FFF77EFB3B6B1A695B69FFF76EFB51461F
:100F80000A674B673B6A70249C4680207969001988
:100F90006144C9005944C0190A684B680260436043
:100FA0008A68CB6888210919C9190A604B6077E6FD
:100FB00053465046B9691C625D6259440A684B68E1
:100FC000026343638A68CB688263C36353463A6CA7
:100FD0001C645D647B6C934200DD22E600220023EA
:100FE00022E670249821FB6A0919C9191A6A5B6AFA
:100FF00038300A604B60396900195944C0190A68D1
:101000004B68026043608A68CB68B0210919C9192E
:101010000A604B607B6CFA6B934200DD6AE6B82194
:101020007020002200230918C9190A604B606FE67E
:10103000B82370229B18DB191C605D60FFF794FBDE
:101040000022200029002A4B01F01DFEB865F96539
:10105000A0E500220023514670208A64CB640A6711
:101060004B6798210918C9190A604B60FFF77EFB8E
:101070007B6B9A69DB698A61CB617B6C3A6C9342CA
:1010800000DDAEE500220023AEE5FB6A9A69DB696C
:1010900008E63B6B9A69DB698266C3667B6C3A6CD7
:1010A000934200DDDCE500220023DCE5BB6B9C699C
:1010B000DD69AEE57B6B9A68DB68FFF766FA0021B5
:1010C000002001F071FCBB6A9A68DB68FFF726FB21
:1010D000FB6A9A68DB68FFF7E4FA3B6B9A68DB68A7
:1010E000FFF7B1FABB6B9A68DB68FFF77EFAC04680
:1010F00000E06F40F0B54746CE460500FA2080B5C7
:1011000089B08846170004AB03AA02A9400201F087
:101110003BFA041E09D1444802F016F900242000CD
:1011200009B0C0BCB946B046F0BD049A0399029814
:1011300001F04EF93D483E49286004F013FD0121BD
:101140003860286804F0F2FC434618603F680600E7
:101150007B1C55D0431C53D080235B020493BB1DE2
:10116000FA011B031343334A2D6813400593C02330
:101170001B030693304B07200793304BE918090DEA
:101180000631C9B200F0B2F8012307220093310002
:10119000280004F063FD052001F014F901F0D8FDEA
:1011A0000022274B01F06FFD01F0F6FDEC218905CF
:1011B00001F086FE814601F0C9FE83B298464246A0
:1011C0000023002A20D1424610041843069A1D4BE2
:1011D00004901A401C4B310013430693059A1B4B95
:1011E00028001A4080239B02134305933A0004AB66
:1011F00004F08EFD0123B3402A6813432B608EE771
:10120000134802F0A1F889E7404601F077FE011C7F
:10121000484601F052FE8721C90501F068FE01F041
:1012200095FEC3B21B02CEE7F86800100000205004
:10123000EC6A0010FFFFFF9FE00000240000E0AF19
:1012400080845E41FFFFF50100000270FFFF01FF97
:1012500020690010F0B5C64600B594B002F026F83B
:10126000FFF738F80DAA0CA90BA8FFF743FF0028D9
:1012700004D1012014B080BCB846F0BD0EAD1822D8
:101280002800164901F0C0FED02380261B06984690
:101290000527F60319E09623114A0893114B124CC7
:1012A000069207930C9B102205930B9B10A968468E
:1012B0000493099701F0A8FE20002A686B68FFF7E5
:1012C0009FF8C820400000F05FFE43465B681800AE
:1012D00030403342DFD1010001F066FB086B0010A3
:1012E0009A9999999999B93F3C690010094A8300E4
:1012F0009A1810B514684022544080322240064C9F
:10130000C000A44663441A60044B9C46604441609C
:1013100010BDC04604C0014004D00140004001405F
:10132000074B8000C3181B68C90092000A435A404B
:101330000C231340034A9446604403607047C04640
:1013400004C0014004D001400123D0228340120692
:1013500093629361094A83009A18116840225140B0
:1013600080320A400649C0008C4663441A60054B2F
:101370009C460523604443607047C04604C001405A
:1013800004D00140004001408023DB051868000FB5
:101390007047C0460FB400B5084883B001F0D4FFD1
:1013A000049B002B07D005A91800019101F03AFE1B
:1013B000034801F0C9FF012001F04CFE486900100C
:1013C00058690010EFF3108072B6034A1368002BBF
:1013D000FCD0BFF35F8F70472C0100D0BFF35F8F4D
:1013E0000022024B1A6080F3108870472C0100D055
:1013F00070B5EFF3108C72B60D4D2B68002BFCD03E
:10140000BFF35F8F0724CB08C618C05C01230C40D4
:10141000A3401C000440034207D118433070BFF3BF
:101420005F8F2C608CF3108870BD1000FFF7B2FF47
:101430002C0100D0F8B54746CE46884680B5EFF37C
:10144000108C72B61C4D2C68002CFCD0BFF35F8F43
:101450009A4222D807210126894602E001329342AE
:1014600018D34D4637001540AF40D4080119045D2C
:101470002742F3D110003C430C70BFF35F8F002272
:101480000D4B1A608CF3108800280EDBC0BCB946E7
:10149000B046F8BD01204042EFE7BFF35F8F002365
:1014A0002B608CF31088012040424346002BEDD086
:1014B0000898FFF76FFFC0462C0100D0044A10784F
:1014C000431CDBB2172B00D9102313707047C046A2
:1014D0008833002010B5064B064C82B00100009303
:1014E00018221F232000FFF7A5FF02B010BDC04641
:1014F0005C690010D84500200021044B044ABFF36A
:101500005F8F02C39342FAD17047C046000100D0FA
:10151000800100D0054B064A1360064A13605360F1
:101520009360D360136153619361704780808080C2
:1015300000E400E004E400E01F2318401E3B834069
:10154000002905D0C021044A490053501360704758
:10155000802201498B50FAE700E100E0012282403D
:10156000034B1B6813405A1E9341D8B27047C046C4
:1015700000E100E001238340014A13607047C04648
:1015800000E200E0064B10309B688000C358054A1B
:1015900000209B1A2F229A424041C0B27047C04699
:1015A00000ED00E08C33002070B50D00EFF31086E5
:1015B00072B60F4A1368002BFCD0BFF35F8F0D4B40
:1015C00010309B6884001B590B4A934203D09D4204
:1015D00001D001F01FFA074B9B681D51BFF35F8FCD
:1015E000BFF35F8F0022024B1A6086F3108870BD34
:1015F000240100D000ED00E0CD010010F0B5574609
:101600004E46DE464546E0B585B00600009117001F
:10161000EFF3108B72B66A4A1368002BFCD0BFF34D
:101620005F8F0025674B5D579A46002D00DAA9E0D1
:101630006B00654C01935B199B009846A146C14421
:101640004B4652469B7910361370604BB6009B6830
:1016500099590B1B2F2B33D95D4B994200D0ACE02D
:10166000019B42469C465B4B6544AD0063535A4B1D
:101670000232A218043B9B1A1B05584A5B0D6519E0
:1016800013436B80564B0121AB80FF23AB71009B52
:10169000EF71AB604B460B4319004C4B9B68995163
:1016A000BFF35F8FBFF35F8F0022454B1A608BF350
:1016B000108805B0F0BCBB46B246A946A046F0BDB6
:1016C00001200A008243D3798C46BB4231D845467B
:1016D000130044491B1B5B415943090D3D4B6353A8
:1016E0003D4B02356519043B5B1B1B053B4D5B0DF8
:1016F0002B43AA464D466B800425AC465546E04434
:10170000131F44441B1B1B055B0D1D434B46997166
:1017100000999D8099604946DF71334B0143136006
:10172000BBE75800C01880002018C179B9422FD9F2
:1017300002000623D356002BF3DA02932B4B6146AB
:101740000393131D9A4604235B429C46E144504692
:101750004B461B1A1B055B0D9C46204B957198460A
:101760006346404603439380019B5A199200039BB2
:10177000A418A380029B1C4AA371009B2260E771FE
:10178000A3608AE701F046F9002553465D574FE70D
:10179000908802934005131D9A46031561469C46A6
:1017A0004046D444634604302018181AE02300054C
:1017B000400D1B0218430390C5E701F02BF94FE7DA
:1017C000240100D0B14B00208C33002000ED00E05C
:1017D000CD01001000A1FFFFBC33002000E0FFFF9F
:1017E00001BDFFFFAAAA00000148804701BD00001B
:1017F00070B501240443EFF30581EFF3108C72B64A
:10180000214A1368002BFCD0BFF35F8F1F4B0500EC
:101810001F4AED1A6D416A43120D1E4D8900AE68D4
:1018200052B27658A6421CD00621595691421CD07D
:1018300012215956914222D01E215956914220D050
:101840002A2159560324914210D0134B19781A704B
:101850008171BFF35F8F00220B4B1A608CF31088ED
:1018600070BDAB680D4C5C50EFE7002461000919B6
:1018700089005B18FF21997109499980E5E70124E6
:10188000F4E70224F2E7C046240100D08C330020A4
:10189000AAAA000000ED00E0B14B0020CD0100102D
:1018A00001BDFFFF10B5084B084C82B0010000934A
:1018B000002205232000FFF7BDFD002801DB1F23C8
:1018C000181A02B010BDC04678690010B54B002050
:1018D000024B9C466144890001607047400000341F
:1018E00070B5114C114DAC420FD2FF262368002B6E
:1018F0000CD0FFF7E3FD01002000FFF7E9FFA68011
:10190000BFF35F8F0834AC42F0D370BDFFF7D6FD54
:1019100001002000FFF7DCFF2671BFF35F8F083462
:10192000AC42E3D3F1E7C046A0390020A83900203B
:1019300010B50400FFF7C2FD01002000FFF7C8FF4B
:10194000FF232371BFF35F8F10BDC04610B50400A5
:101950000120FFF7BFFD034BC3189B002360BFF3BB
:101960005F8F10BD40000034034B9C4661448900EA
:101970000160BFF35F8F7047400000340A4B196865
:10198000EFF3108072B60A68002AFCD0BFF35F8FB5
:101990001B68BFF35F8F00221A6080F3108840BF7E
:1019A000002000217047C046904B0020F0B5DE4675
:1019B00057464E464546E0B587B0EFF30583032210
:1019C00001251A40954091008846A946B34B0392E1
:1019D0005C58B34B1D60B34B04934B46B248436312
:1019E0000823E55E002D37DAA3881BB2002B00DB4D
:1019F000ADE0A379002B00D0EEE00823E05E0028E4
:101A000020DB430062691B18DB00D3189E68DD6889
:101A1000731C00D111E1A44801004144826A0B69A2
:101A2000B71A9B1A9F4215D30123026A0398834079
:101A30001A420FD09C4800F0B5FB8D4202DCCCD19D
:101A40008642CAD940BF07B0F0BCBB46B246A946E1
:101A5000A046F0BD0E61EDE762696B0092465B192E
:101A6000DB009A4453469E68DF6800F09BFB8F4280
:101A7000BADC00D103E1002F00DAE8E05246534619
:101A800052691B699346049A934200D1D9E05246A9
:101A90000821605E52880004594610439847009020
:101AA00001910099019A0B001000134300D1CEE080
:101AB00013000A00B61A9F41002806DB7A4800F09E
:101AC00071FB009E019F36184F4153469E60DF60B8
:101AD00000229A5E002A00DA86E7530099186069AE
:101AE000C900411802938B68C9689B46B94200DD62
:101AF0007AE702D1B34200D976E708239C46A44492
:101B0000059565462281A446029B2C0006E0530001
:101B10009918C90041188D68C968AB469B18DB004D
:101B2000C318B94206DC00D1B3E01C000023E25E1A
:101B3000002AECDA230064469C4653461A8063462A
:101B4000059D1D80A3881BB2002B00DA51E7226996
:101B5000EFF3108172B61368002BFCD0BFF35F8FD8
:101B60000123A7885B42A3803FB22369BFF35F8F45
:101B700000221A6081F31088002F00DA39E7230071
:101B8000083322009A4666697B00DB19DB00F318F4
:101B9000996850468C460824115FDD68002910DBE7
:101BA000029306E0AB4244D00023E15E200000290E
:101BB00006DB4C006418E4003419E368AB42F1DD45
:101BC000029B078000201F5E1980002FDCDA1400C2
:101BD000A379002B00D110E70023A371260008236E
:101BE000E15E08364B1C00D12CE70800A24665696F
:101BF00002E03E004B1C1AD04B005B18DB00EF18D4
:101C00000A008C46E95E7B881BB2002BF1DA0123C7
:101C10005B42DC17BB60FC60824205D053463180DA
:101C20001B893B8053461A8160464B1CE4D15446C5
:101C3000E5E6A3686345B7D9C2E76B1C00D0EAE6C6
:101C4000F8E65B4658461B69984700281BD1534667
:101C50001B8822692381EFF3108372B61168002973
:101C6000FCD0BFF35F8F514662880A80226965808D
:101C7000BFF35F8F0021116083F31088B4E68642C2
:101C800000D8F8E6B0E65B461A685B6800920193FC
:101C900007E7B34500D848E74CE7C046744A002040
:101CA0003C700540AD1900100040054070B52E4C49
:101CB0002569002D04D00A212C48FFF709FE70BDCC
:101CC0002B4E0321300000F063FAE660FFF7F6FBCD
:101CD000284B03229C46D02322701B061B6801213F
:101CE0006370254B6044A3600F23800020610220B5
:101CF000638063694942A1801980023119864731A6
:101D00001D83585218315A5275325C399952183223
:101D100001319952183201319952183201319952D8
:101D2000083518329D520231183299521832013159
:101D300099521832013199521832013199521832A0
:101D4000013199521832013199520C4B0C49DC6027
:101D500001303562FFF728FC01210320FFF7ECFB7F
:101D6000084B1D60A7E7C046D4330020904B0020ED
:101D70000040054040000034FFFF1000744A00207E
:101D8000AD1900103860054000487047D43300207A
:101D9000F8B51F0008AB1B7804001600002B08D113
:101DA00000F008FA32003B00121A8B41002B00DAD7
:101DB00052E02269EFF3108072B61368002BFCD05A
:101DC000BFF35F8F0223E15E63694A005218D200BD
:101DD0009B182269002936DB1D886580BFF35F8F61
:101DE0000025156080F31088069A9E60DF601A61F6
:101DF000079A5A615A8801325204520C101C002A68
:101E00001FD082B25880080410432669EFF3108770
:101E100072B63268002AFCD0BFF35F8FA2881A80A6
:101E2000A1802369BFF35F8F00221A6087F31088B7
:101E30000A4923788C4601329A40E36863441A6069
:101E4000F8BD0120DDE7BFF35F8F0023136080F34F
:101E5000108801204042F3E70020F1E73C20000019
:101E600070B501000469EFF3108C72B62068002889
:101E7000FCD0BFF35F8F02200D5E4C6968004019F3
:101E8000C00024180869002D36DB26884E80BFF379
:101E90005F8F002606608CF31088E36063880498E7
:101EA000013320615B0405985B0CA26060611A1C21
:101EB000002B1FD093B22804628018430A69EFF305
:101EC000108C72B61368002BFCD0BFF35F8F8B8829
:101ED00023808D800B69BFF35F8F00221A608CF323
:101EE00010880B7801329A40CB6808498C466344CD
:101EF0001A6070BD0122DDE7BFF35F8F002303602E
:101F00008CF3108801204042F3E7C0463C200000DB
:101F100010B543890A1493421ADD53009B18426995
:101F2000DB00D3180469EFF3108C72B62268002A24
:101F3000FCD0BFF35F8F5A88090494B2090C8A421F
:101F400008D00369BFF35F8F00221A608CF31088FA
:101F5000002010BD8022120214435C80012302691C
:101F60008371BFF35F8F002111608CF310880449E7
:101F700002788C469340C268012062441360E8E70F
:101F80003C20000040787047F0B5C64600B582B0EE
:101F9000040000F00FF9FA2206000F0020000023D1
:101FA0000021920000F06CFF8019794104000D1EA1
:101FB00002DA01242E4D644206267642F7173619BE
:101FC0006F41AF4214D811D000F0F4F832003B005A
:101FD000121A8B41002B15DC002B46D02000290063
:101FE00000F0F2F802B080BCB846F0BDA642EBD9D2
:101FF0000026002700F0DEF832003B00121A8B4169
:10200000002BE9DD00F0D6F832003B00121A8B41BC
:10201000002B0ADB00230193164B32000093164875
:102020003B00FFF71DFF0130D8D000233900B04638
:102030009C46124A1248536A994204D8966A464509
:10204000CCD29942CAD10668EFF3108772B63368D2
:10205000002BFCD0BFF35F8F0368BFF35F8F664632
:102060001E6087F3108820BFE5E7002AB6D0C9E7D5
:10207000FFFFFF7F7D190010D43300200040054092
:10208000904B0020F0B557464E46DE464546E0B53B
:1020900006000F0085B0EFF3058399468B46002BB1
:1020A00012D0384900204B6ABB4206D38A6ADB1B38
:1020B000591E8B41B2424041184305B0F0BCBB46AB
:1020C000B246A946A046F0BD2F4B9A46DB6898461B
:1020D00053461B784046039300F064F84246039B46
:1020E000040004339B009B580D001B1A390030007C
:1020F000001BA941894510DC0DD020BF214A0020DA
:10210000536A5B45D9D3926ADB1B591E8B41B2429D
:1021100040411843D1E78342EFD900F04BF8320039
:102120003B00121A8B41002B1ADB00230193174B43
:102130003200009350463B00FFF792FE011E0FDD78
:10214000104B5A6A5A451BD39B6AB34216D350466A
:10215000FFF7DEFE0B4A0020536A5B45ADD3D2E7A2
:10216000084A0020536A5B45A7D30020926ADB1B14
:10217000B24240415A1E934118439EE75A45E6D168
:1021800020BFE4E700400540D43300207D19001053
:1021900010B5024A0248FFF72BF910BD94690010F0
:1021A000DC4500200300416A0A00986A596A8A42A5
:1021B000FAD17047034B596A0A00986A596A9142EA
:1021C000FAD1704700400540064A536A9942FCD84C
:1021D00007D1044B02E05A6A914202D19A6A9042B6
:1021E000F9D8704700400540F8B5DE464E465746E0
:1021F0004546E0B58B4605000A991800160000F028
:102200000FFD0A9B6C001F02324B64199C46A40010
:102210006444636881469F4200D967602B1FDBB22C
:102220009846012B30D9C02380229B01E31812016C
:102230001A60294BAD0059599A4600291BD17301E8
:10224000E026226853401E40802342465B01E3188B
:102250001E60012A30D9802380229B01E3181201DD
:102260001A6053464A4667605A51F0BCBB46B246B4
:10227000A946A046F8BD586900F0D2FC01304300E1
:102280001B18033BFDD2DAE75B46012BCBD1C02301
:1022900003229B01E3181A60023AA3681A42FCD099
:1022A0007301E0262268AD0053401E4080230A4A95
:1022B0005B019246E3181E605A4621685140032292
:1022C0000A401A6001225B469A40A3681A42FCD079
:1022D000C1E7C04600800040E4450020F0B5464616
:1022E0004F46D646C0B51F00344B44009C462418C8
:1022F000A4006444636888461600FF2B02D880233C
:102300005B006360031FDBB29A46012B30D9C02308
:1023100080229B01E31812011A60294B850059594C
:10232000994600291BD17301E026226853401E40C4
:10233000802352465B01E3181E60012A30D98023B6
:1023400080229B01E31812011A6080235B00636006
:102350004B465F51E0BCBA46B146A846F0BD58694D
:1023600000F05EFC013043001B18033BFDD2DAE7AE
:102370004346012BCBD1C02303229B01E3181A60F3
:10238000023AA3681A42FCD07301E0262268850055
:1023900053401E4080230A4A5B019146E3181E60A9
:1023A00042462168514003220A401A6001234246F6
:1023B0009340A2681342FCD0C1E7C04600800040B1
:1023C000E4450020014B8000C0587047E4450020E0
:1023D000F0B54746CE4680B55B4B16005A680700FD
:1023E000884683B0FF2A02D8802252005A60032216
:1023F000564B554D1A600123AC682342FCD0202275
:1024000029685140C0320A4051490A602A684E4D3D
:102410005A40032313400B600223AC682342FCD0D4
:1024200080224C4B12011A6080235B006B604A4C87
:1024300099464A4B3A006361012143464848009659
:1024400000F0D8F941463800714300F0E9FB454BF4
:1024500005005A68FF2A01D84A465A608022424B3A
:1024600012011A602169002907D0606900F0D8FBC9
:10247000013043001B18033BFDD2E023394A3B489F
:1024800011680B40036002231168594001330B406F
:102490000421036093681942FCD08021344B090168
:1024A00019608021334B490051602361264B5A68E3
:1024B000FF2A00D8596003220121244B1A60224AC6
:1024C00093681942FCD0E023106803402048036061
:1024D000126803234A40022113401B4A0360936899
:1024E0001942FCD080211B4B090119608021224B2D
:1024F0004900516065615A68FF2A00D859608022FE
:102500001E4B12011A60A169002907D0606900F012
:1025100087FB013043001B18033BFDD240231649C3
:102520000A685A40A0331340154A13608022154BA5
:1025300012011A6080235B004B60084BA36103B05B
:10254000C0BCB946B046F0BD3C8000403CB0004045
:102550003C9000403CA00040E4450020006CDC02C0
:10256000008002403080004030B000403090004099
:1025700030A00040001BB7004880004048B0004039
:102580004890004048A00040F0B54E46DE46574611
:102590004546E0B51600924A85B09346A022520007
:1025A00091465A4603969B46060001920291019B72
:1025B0008C4A93420DD901235B429C468A4AE144EE
:1025C0009446019B634401934B460F2BEFD10020AF
:1025D0008EE01F00854B07249C466744230063431D
:1025E00038001900984600F01BFBA246651E864283
:1025F00050D06C433800210000F012FB864259D0C5
:102600006B1E9846012D00D1D3E05346E41A2100F9
:10261000380000F005FB864258D0AB1E9846022DCC
:1026200000D1B9E05346E41A2100380000F0F8FA6E
:10263000864264D0EB1E9846032D66D05346E41ABA
:102640002100380000F0ECFA864200D172E02B1F26
:102650009846042D00D174E05346E41A2100380056
:1026600000F0DEFA864200D17DE0052D00D17FE04A
:1026700053463800E11A00F0D3FA06248642ADD161
:102680000029ABD1C8465B46D14601250298039E7E
:1026900026E0A8464146380000F0C2FA002900D1E1
:1026A00097E0651EA2466C433800210000F0B8FA9E
:1026B0008642A5D12100380000F0B2FA00299FD14E
:1026C000C8465B46D1460298039E09E00029A4D182
:1026D0005246C2465B46C846554691460298039EFE
:1026E0004246434951434A460160012032601D6021
:1026F00005B0F0BCBB46B246A946A046F0BD0029D5
:10270000E6D0EB1E9846032D98D10921380003240A
:10271000092500F085FA8642BBD003230621380044
:102720009A460334073D00F07BFA8642C2D001236B
:1027300098466AE70029CBD02B1F9846042D00D07D
:102740008AE704240C353B099E42A2D004230C21C5
:1027500038009A4608340D3D00F062FA8642A9D04E
:102760000223984651E70029B2D0052D00D07FE71B
:1027700019213800192500F053FA864226D0142179
:10278000380000F04DFA052314249A4686421BD0E7
:10279000023B9846153D38E7042302249846BB08BF
:1027A0009E4200D176E7A246013D7B089E4200D1C1
:1027B00080E7B74200D0FEE60122C8465B4691465C
:1027C00001250298039E8BE7042573E7A84605249C
:1027D00060E7C8465B46A14625000298039E7FE756
:1027E00050262F0050F80C0020D1FFFFB0710B00D5
:1027F000001BB700F8B5040021481E0017000D00AB
:1028000000F00EFA0100380000F00AFA069B3604C8
:102810001B031E432368002B20DB1A4B1A49E318C5
:102820005A1E93418022920194465B421B0B174A29
:102830001B0363441360164A13601F000A68974322
:10284000FBD1144B2560E2182123A060136023689C
:10285000002BFCDA0823E6601360F8BD3F232268F2
:102860001340AB42D9D1A3681B051B0D8342D4D1C1
:10287000EE22E368D2021340B342CED1EDE7C04668
:10288000001BB7000040FDBF08C0004000E0004052
:1028900000F000400430000010B580241C4BE4051B
:1028A0001C6000281AD001231A4C18431A4BDC6113
:1028B0001A4C44401C62596298628021144BC9052D
:1028C0001960174817490860E021C9041960002AF7
:1028D00007D18022144B12061A6010BD0E4BD8612E
:1028E000EBE753019B1A9B009A18802312015B04AB
:1028F0009A4209D213000D490B60074B5A6080229F
:10290000094BD2051A60E8E7094B1A00F3E7C04605
:1029100000B00540D3C007B0008005402D3FF84F00
:10292000FCFF01000820014000A005404C4A0020A7
:10293000FFFFFF008023024A9B000B43D3627047D6
:1029400000800540002310B50100988A1B8B984732
:1029500010BDC046162310B50100188802331B882D
:10296000984710BDF8B54746CE4680B50F1E18D023
:1029700014239946043304000025012698464B464B
:102980001888434621681B88984701C4431E984114
:1029900001350640AF42F2D13000C0BCB946B04666
:1029A000F8BD0126F8E7C046002370B504000D000D
:1029B000988A03491B8B98472900030020009847F9
:1029C00055420000002370B504000D00988A0549A7
:1029D0001B8B984703000020002C01DB0130A04036
:1029E0002900984755420000AA23064A1B0113609C
:1029F0008D235B00D3600449044B19605368002B9E
:102A0000FCDA70470040024000B0FA00006002406B
:102A10007047C04610B50148FEF7BCFCB86900100D
:102A200070B5074D074EB54209D20024013E761B12
:102A3000B60808CD984723000134B342F9D170BDE0
:102A4000C867001004680010054B064A06491A6062
:102A5000064A074B1A6010000B689843FBD1704779
:102A600000E00040BFCDFBFE08C00040FE7F3C0000
:102A700000F00040044BDB6C002B03D18022034BA1
:102A8000D2021A607047C046000011504C2011500D
:102A9000044A054B1A60054A1368DB018033FBD1F9
:102AA0007047C046FFFFFF0100F0004008C0004033
:102AB0004022034B9A675A671A67DA667047C04626
:102AC00000F0014010B5FEF717FD10BD70B5044DC4
:102AD000044CA968C022200000F096FAAC6070BDDA
:102AE00000ED00E000000020002310B5294C82B06A
:102AF000A367FFF779FF0122274B1A60636C012B54
:102B0000FCD10322254B1A60224A936B012BFCD186
:102B1000013300930121224A22480433FFF76AFE61
:102B2000052301210093204A2048FFF763FE00227D
:102B3000022104201E4BFFF7D1FB002201210520BA
:102B40001C4BFFF7CBFB0022002107201A4BFFF79D
:102B5000C5FB002200210820174BFFF7BFFB802395
:102B6000DB000093002200210920134BFFF73CFB00
:102B70000022104B00210620FFF7B0FB0420FFF7D6
:102B800021FC0E4900F04CF801000020FFF7D2FEB6
:102B900002B010BD008000403CB0004030B00040AA
:102BA000002F685900800240008C864700C0024018
:102BB000001BB70040597307006CDC0240420F0055
:102BC00001480421014B1847F0330020652900100B
:102BD000124A936F9B0815D29066D166002905D0E2
:102BE000FFE7FFE7FFE7516F106F704704B58021E3
:102BF0000906C2175140002800D0C84303F09CFDCD
:102C0000002104BDF0B5146E556E576F166FFFF7B7
:102C1000E3FF1466556657671667F0BD000000D0E5
:102C2000114A936F9B0813D210665166002905D094
:102C3000FFE7FFE7FFE7516F106F704704B500280B
:102C400001D00020C04303F077FD002104BDC04641
:102C5000F0B5146E556E576F166FFFF7E5FF1466EB
:102C6000556657671667F0BD000000D048404140E8
:102C7000484018B4134B5B68019308BD18B4114B5E
:102C80001B68019308BD94460F4A926F920805D2C3
:102C9000624618B40B4BDB68019308BD0A4AF0B5D5
:102CA000146E556E576F166F6246FFF7F2FF064AB5
:102CB0001466556657671667F0BD18B4014B9B68DC
:102CC000019308BDC03C0020000000D0FFB550407B
:102CD0004240504059404B40594000E0FFB5154F2D
:102CE0004C00640D03D0BC4204D10C0314D8002066
:102CF000090D09055C00640D03D0BC4204D11C031E
:102D00000AD800221B0D1B0501264B4009D44B405D
:102D100003D58B4200D18242FFBD9942FCD1904243
:102D2000FFBD0B43DB1803431343F5D0C9434918D8
:102D3000FFBD0000FF07000000B5FFF7CFFF804197
:102D400000BDC04600B5FFF7C1FF804100BD0000D7
:102D50000021002805D17047C1174840401AFAD019
:102D6000C90713B5064B1B6898470CBC441CA2400E
:102D70001005120B0349091B09051943114310BD26
:102D80008C4A00201F04000018B4024B5B6A0193B8
:102D900008BD0000C03C002018B4024BDB6F01935B
:102DA00008BD0000C03C002010B50148FEF7F2FA53
:102DB000C4690010132370B51D78012D19D014DDDE
:102DC0001D48FFF7C7FD06001C48FFF7C3FD1C4C5C
:102DD00080223100200000F017F9022D06D019489A
:102DE000FFF7B0FD184B186070BD154C174BA3646E
:102DF000F5E7174B124C23606360A360E360236127
:102E00006361A361E36123626362A362E36223639C
:102E10006363A363E36323646364A364E36423657C
:102E20006365A365E36523666366A366E36623675C
:102E30006367A367E367D9E7534400005346000084
:102E4000C03C00204C3300008C4A0020552E00105E
:102E5000A92D001007B5604601880A0A0230DF2A52
:102E6000FAD1C9B2820804D3028840880004104312
:102E700000E00068014A5050039007BDC03C0020AC
:102E800051434343C9188C46110C83B24B4310B4D1
:102E9000040C614392B280B2504362431C041B0C89
:102EA000001910BC59411304120CC018514161445F
:102EB000704700004840414048400E4B5B6818474F
:102EC0000C4B1B6818470C4A936F9B0802D2094BA6
:102ED000DB681847F0B5146E556E576F166FFFF725
:102EE000F6FF054A1466556657671667F0BD014B35
:102EF0009B681847904A0020000000D0491A00281B
:102F000008D1084670470000C10FC90700D54042EC
:102F1000002817D0F44603B40B4B1B68984706BC37
:102F200081409E384042803107D20B0607D04900CD
:102F3000490AC0051043084360470130F8E7490AD1
:102F40008902F5E7704700008C4A0020014B5B6A5C
:102F500018470000904A002010B50148FEF71AFA01
:102F60004C6A0010132310B510481C78FFF7F2FCD0
:102F70000100012C0AD003DD80220D4800F044F846
:102F80000C48FFF7DFFC0C4B186010BD084C5422B6
:102F9000200000F039F82200084980322368002B15
:102FA00000D1216004349442F8D1E9E7534600008F
:102FB000904A00204C3300008C4A0020592F00100A
:102FC00010B5040002F0F2FE002804D0034B0419EF
:102FD0009C4200D810BD0248FEF7DCF90000042036
:102FE000DC69001010B502F0EBFE10BD01480421B1
:102FF000014B18470034002065290010014B1B6865
:103000001847000000340020014B5B68184700009F
:103010000034002010B5002800D110BD00F04AF99E
:10302000FBE7C04610B5094A0300146884B0002CC1
:1030300008D0012200910648524203A9A04701206E
:1030400004B010BD00F080F90020F9E7484A0020E4
:103050001530001000BEFDE7094A03001068002883
:1030600005D00849C3188B4207D81360704706483B
:103070000449C31810608B42F7D901204042F5E79C
:103080004446002000000420B84B002010B5FFF794
:10309000E1FFC04670B5FFF7C3FC074D074EB542D0
:1030A00009D20024013E761BB60808CD98472300BC
:1030B0000134B342F9D170BD046800100C680010EF
:1030C000030010B5080011001B68984710BDC046EA
:1030D000F0B5C64600B5437D07000C001600002B76
:1030E00046D0002A17DD0B780A2B24D000239846FF
:1030F000012E13D001252900635C01350A2B26D04F
:10310000B542F8D1464509DCA419013C23780D3BB2
:103110005A4253413B7580BCB846F0BD4346E01867
:10312000A419F11A013C3B68984723780D3B5A4299
:1031300053413B75EFE7037D002BD7D102210F48A8
:103140003B689847012EDFD001239846D2E7631EE3
:103150005B5C0D2BD4D0884504DA4346C91AE018CD
:103160003B689847022105483B68A8469847C7E74F
:103170000368110020009847CDE7C046806B00101F
:10318000F0B54546DE464E465746E0B583B091461B
:103190001C0080460D00FFF70DF80023304A12187E
:1031A0004B41002B02DA01222E4B52422E490800DD
:1031B0008A4603F0E1FA07006B1C03D1404603F096
:1031C00029F90500002C27D0284E294B1C68002C1B
:1031D00018D04B46002B21D1264B994602E024699A
:1031E000002C0FD02368002BF9D04B461B68002B16
:1031F00001D09C42F3D120002A004146B047246907
:10320000002CEFD1002F26D1280003B0F0BCBB4624
:10321000B246A946A046F0BD174ED6E7154B9946D3
:103220000A239B4602E02469002CEBD02368002B84
:10323000F9D04B461B68002B01D0A342F3D12A00E2
:1032400041462000B0476B465A462000DA71D91D2E
:103250000122B047E7E7504603F066FAD4E7C046DC
:1032600040420F00FFFFFF7FA0390020D130001047
:103270003446002040460020C13000100A4A13683E
:10328000002B05D10CE01A001B691032002B07D06F
:103290008342F8D1002902D1186910601961704782
:1032A0000029FCD01060FAE73446002010B500F089
:1032B0007FFA10BDF0B5CE46474680B583B06B4669
:1032C0000600DD1D2870FEF775FF0023194A12184D
:1032D0004B41002B02DA0122174B524217490800DA
:1032E000884603F049FA164B81461C68002C14D01E
:1032F000144F02E02469002C0FD02368002BF9D072
:103300003B68002B01D09C42F4D12000012229000F
:10331000FFF7DEFE2469002CEFD14B46002B05D1D0
:10332000300003B0C0BCB946B046F0BD404603F023
:10333000FBF9F5E740420F00FFFFFF7FA0390020B7
:10334000344600204046002070B5040003F062F8C7
:1033500001230100050001222000FFF711FF084BA7
:103360001C68002C06D06368002B05D098472469A0
:10337000002CF8D1280070BD2469002CF3D1F9E7A6
:10338000344600207047C0460022014B1A70704737
:10339000B24B00204B790020FF2B0BD18B79002BF7
:1033A00008D1CB79012B05D1082A03D9024B8A78A1
:1033B00009301A707047C046B24B00200120704798
:1033C00010B5012913D112495379107909781B02DC
:1033D00003430020994200D010BD5378012B08D040
:1033E000022BF9D1642200210020FFF755FA0120B9
:1033F000F2E7D37891781B021943480ADB0501D420
:10340000012040427F238A05D20F1940FFF7DAFAE4
:10341000B24B0020004870474C6C001070B505009E
:1034200014000120012909D153780020012B05D176
:10343000637912791B021343072B00D070BD210062
:103440002800024A9F3301F055FAF7E7A46B0010F9
:103450000123037000487047846B00104B780A7892
:103460001B0213438A7810B512041A43CB781B064B
:1034700013439622D200934200D010BD00220120B7
:1034800011004042FFF79EFA024B1860024B196090
:103490007047C046D0450020D445002010B5024BEF
:1034A0001878FEF767F810BDB34B0020154B70B5C8
:1034B0001A68002A22D0EFF3108172B61068002833
:1034C000FCD0BFF35F8F00200F4A596010701B685B
:1034D000BFF35F8F186081F31088002400250B4E26
:1034E0003078FEF73BF8002804D10024002529009D
:1034F000200070BD3078FEF73DF8F8E7FA2400258B
:10350000A400ECE76C4A0020B44B0020B34B002031
:1035100070B5040000200E0001F00AFB002834D032
:10352000002001F01BFB00282FD0FEF743FE0023F4
:10353000174A12184B41002B16DB164D280003F0DA
:103540001BF9002821D0002001F0F2FA00280FD149
:1035500001200021404200F001FD032464422800C4
:1035600003F0E2F8200070BD01220B4B5242E4E769
:10357000002001F0F3FA0028EAD0210032000020F8
:1035800001F0F6FA041EEAD1E7E703246442E9E712
:1035900040420F00944B0020FFFFFF7F10B5FEF765
:1035A00009FE00230D4A12184B41002B02DA0122BA
:1035B0000B4B52420B4C200003F0DEF800280CD0DD
:1035C00001200021404200F0C9FC002001F014FB62
:1035D0000028F5D1200003F0A7F810BD40420F00ED
:1035E000FFFFFF7F944B0020F8B5DE46574680B5BD
:1035F00005000C00FEF7DEFD0023364A12184B4191
:10360000002B02DA0122344B5242344908008A4628
:1036100003F0B2F8002803D1C0BCBB46B246F8BDE7
:10362000002001F085FA00284AD00026002C43DD56
:103630002B4B9B4614E0A919002001F017FB070053
:1036400001200021404200F089FC002001F0D4FA62
:10365000FEF7B0FD224BF61918605960B4422BDD1D
:10366000002001F023FBA71B0200B84200DD3A0056
:10367000002AE0D101200021404200F06FFC002030
:1036800001F0BAFA002001F053FA002814D000200B
:1036900001F00CFB0028E1D1FEF78CFD5B460F002A
:1036A0001A685B68002184460E4812184B419F42FD
:1036B00002D8D3D19445D1D9504603F035F8ABE7C1
:1036C00000200021064B18605960504603F02CF88A
:1036D000A2E7C04640420F00FFFFFF7F944B00204F
:1036E000B83C002020A1070030B52A4C85B000214D
:1036F000200003F029F800281CD1274B1A68002A63
:1037000016D0EFF3108172B610680028FCD0BFF31A
:103710005F8F01242148596002781B68D2B204707F
:10372000BFF35F8F0020186081F31088002A17D044
:1037300005B030BD01200021404200F00FFC002008
:1037400001F00CFA0500200002F0EEFF002DEFD092
:10375000134B1B68002BEBD0124A10689847E7E721
:10376000FEF712FB0400FEF725FDFA22002392006B
:1037700012184B41002B02DA01220B4B524201215D
:10378000029100210191094920000091FEF700FB00
:10379000CEE7C046944B00206C4A0020B44B00207A
:1037A000D0450020D4450020FFFFFF7FAD3400103E
:1037B000D02310B51B0684B01C68FEF7E5FAFEF7AF
:1037C000E1FBA04202D0002004B010BD294B002133
:1037D00000201B7801F05EFD27480368002B45D0D0
:1037E0000120FEF75FF8FF23244C25492070184084
:1037F000FDF7DAFE20780121FDF79EFE0520FDF79A
:10380000C1FE002824D1082200211E48FFF7F6FB44
:10381000FEF7BAFA0400FEF7CDFCFA22002392006C
:1038200012184B41002B02DA0122174B52420121A0
:10383000029100210191154920000091FEF7A8FA9C
:103840000028C0DB12480121FFF718FD0120BBE76B
:103850000120FDF73FFE0B4B01001800FEF784F836
:10386000002205200B49FDF7C9FEEBE7FEF760F8E3
:10387000B6E7C046086F0010944B0020B34B002001
:10388000E93600106C4A0020FFFFFF7FAD340010C6
:10389000103400209D34001000487047E86C001080
:1038A00000487047946C001010B504001748037866
:1038B000002B20D0002C06D1154B16484380063B28
:1038C000FF3B038010BD052C1DD8134BA400E0580E
:1038D00012490123013804E001330A800231142B1C
:1038E0000DD0C25C002AF7D1C022DBB25B0092008F
:1038F00008481343E5E7112100F01AF8DAE7CA2374
:1039000004489B00DDE70020DCE7C0469C4B00201C
:10391000090400000C4600207C6C00100E460020BC
:1039200010B5024800F0D8F810BDC046844A002007
:1039300030B54B1E012900D1A7E0664A11780D0968
:103940002C0030349F2900D9A2E00470012B00D153
:10395000BEE00F21147821400C003034092900D931
:1039600098E04470022B00D1B2E054782509290078
:1039700030319F2C00D990E08170032B00D1A7E05B
:103980000F2121400C003034092900D987E0C47090
:10399000042B00D19CE094782509290030319F2C1C
:1039A00000D97FE00171052B00D191E00F2121406A
:1039B0000C003034092900D976E04471062B00D17F
:1039C00086E0D4782509290030319F2C00D96EE09B
:1039D0008171072B00D17BE00F2121400C00303496
:1039E000092966D8C471082B00D171E01479250922
:1039F000290030319F2C5FD80172092B68D00F212C
:103A000021400C003034092958D844720A2B5FD069
:103A100054792509290030319F2C52D881720B2B03
:103A200056D00F2121400C00303409294BD8C472E4
:103A30000C2B4DD094792509290030319F2C00D9C9
:103A4000073101730D2B43D00F2121400C0030347E
:103A5000092901D937310C0044730E2B38D0D179A4
:103A60000C09220030329F2900D9073282730F2BB4
:103A70002ED00F220A4011003731092A01D83032E6
:103A80001100C173102B23D010300023037030BD00
:103A900007345AE737310C0063E707316CE73731F9
:103AA0000C0074E707317DE737310C0085E70731FB
:103AB0008EE737310C0095E707319DE737310C0071
:103AC000A3E70731AAE737310C00C4720C2BB1D140
:103AD000C018DAE7844A002010B588B004000D222F
:103AE00000216846FFF78AFA0D22002104A8FFF79B
:103AF00085FA4B236A466846137004A90D2202F02A
:103B00000BFE1521082220006944FFF77DFA08B05A
:103B100010BDC046F8B500F047F90C23194DFF223F
:103B2000AB6705201849FDF769FD184C40220021BC
:103B30002000FFF763FA4027002301262121144AC1
:103B400066702783A260136063545F3161844539D6
:103B50006354104A10496360E2602787A1620B60DA
:103B60006362E26202F028FE80239B052E64EB6410
:103B700090230A4A0120EA508022094B5202DA645B
:103B8000F8BDC04600001150F9040020484600204E
:103B900084001050000110508000105010D001001F
:103BA0000020115010B501210520FDF7C5FC10BD06
:103BB00010B500220021024800F016F910BDC046E1
:103BC00068460020044B1970002904D080219023FE
:103BD000024A8902D1507047AE4B0020002011509C
:103BE0000B785B0602D14B78052B00D070478A78A2
:103BF000014B1A60FAE7C04600001150F0B5C64606
:103C0000C87800B58007830F1800012B60D08F782B
:103C10000A794B797F213940FC091B024E0013437E
:103C2000334D32195201AA18977001276740577017
:103C300000275B055B0DD7701383D076B846CA00AA
:103C4000012C32D02B4FBC468F016244BC46AC44A1
:103C50006746BA6047461760002932D0264AC90035
:103C600090466246414451603F223F3393430228CD
:103C700037D0224937190A687F01D3180B602049D1
:103C8000EF19FA608B422ED836197601AD19EB7E0A
:103C90001C499B064A4013438022120613436A685C
:103CA0001360012080BCB846F0BD174FBC468F01A1
:103CB0006244BC46AC446746BA6247461760002976
:103CC00008D1002364012C196360104BE360E8E71E
:103CD0000020E7E70B4AC900904662464144516222
:103CE000C2E75B00C5E7FEF795FEFA68CCE7C04681
:103CF000484600208400105004001050504A002014
:103D0000FF0F1050000010508000105000011050A4
:103D100010B502F051FD10BD10B57F200C00204001
:103D20004000E409110000191A00034B4001C018BB
:103D300000F05AF8012010BD484600207F231800EB
:103D400000B5084083B00B4204D14B424B41084AB6
:103D5000013393668022C9094000064B4018400198
:103D60000021C018120102F017FD03B000BDC046CB
:103D700000201150484600207F22130010B50B4050
:103D80000A4200D110BDC9095B005B1804485B0101
:103D9000C018002300220349C37002F0FDFCF1E7C4
:103DA00048460020FFF7FFFF80220A4B520410B55F
:103DB0001A60094B09491A6010000B689843FBD13F
:103DC0008022002152010648FFF718F90922054B0D
:103DD0005A6710BD00E0004000F0004008C00040FD
:103DE0000000105000001150002310B5C3820133B1
:103DF000828283760161040002F0D6FC002804D0A0
:103E000080219023074A8902D150200002F0ACFCA7
:103E1000002802D00123237710BD200002F0B4FC5B
:103E2000FAE7C046002011507047C0467047C046B0
:103E300000207047002070477047C0467047C0465A
:103E40007047C0467047C046024B5878431E9841A1
:103E5000C0B27047E0400020024B18784007C00F06
:103E60007047C046E0400020F0B5D6464F46464673
:103E7000C0B52F4B07009A461B780E00FF2B50D180
:103E8000002941D0002154222A48FFF7B7F8002228
:103E9000294C2A4B20001A70FDF74AFD284B1C6064
:103EA000284C2000143CFDF751FD200001F0FAFDE4
:103EB000254B264D1C60264B002B04D02800FFF715
:103EC000C7FA244B1860244900248946214900235D
:103ED00088462A7810E043461B6862019B18002B35
:103EE00012D05B68002B0FD098472A780134E4B2D7
:103EF000511C2300A14209DBA242ECD89B1A5B01B2
:103F00004B445B68002BEFD100200BE0534631009F
:103F100038001F70FFF7FEFD0028F5D03800FFF7CE
:103F200041FE0120E0BCBA46B146A846F0BDC046FD
:103F300044340020E0400020D8400020AF4B002057
:103F4000344100203C34002038410020AD4B00209B
:103F500051340010303F0020A46D0010F0B5DE4653
:103F600057464E464546E0B5C84B91B002931B7884
:103F7000FF2B00D13EE1C64BC64E9B465F46C64B6B
:103F80000DAC0193C54B009335686A69EFF310815E
:103F900072B61368002BFCD0BFF35F8FA9612800B5
:103FA000210001F0AFFB6A69AB69BFF35F8F0021AD
:103FB000116083F31088002800D11BE16378082B7F
:103FC000E2D89B00FB589F466368002BDCD0A068BA
:103FD0009847D9E77F222179AF4D0A405300EB186B
:103FE0009846C809804440460123303005799D43F6
:103FF0000571057903339D430571002A00D100E165
:104000004346A74A1B7D1278934200D3EFE0A54AAE
:104010005B011568ED18002D00D1EBE0A368627913
:104020002078AD69A847AFE79F4A1378002B00D1ED
:10403000E0E01378013BDBB213701378002BA3D1BF
:104040000122954D01212B78042013432B7034233A
:10405000EA5C8A43EA54EA5C8243EA540133EA5C4C
:104060008A43EA54EA5C8243EA54237800209B4660
:1040700000F09EFC602223791A40602A00D1EFE014
:10408000402A00D1F5E0DB06DB0E012B00D113E165
:10409000022B00D1C7E0002B00D0E1E0202A00D1A4
:1040A0001CE2002A00D0DBE06379092B00D9D7E0BD
:1040B0007E4A9B00D3589F46774D2B78DB0700D470
:1040C00062E7FFF7BFFE5FE7019BDB78DB0700D409
:1040D0005AE76068FFF7AAFE56E76F4D2B78DB07BB
:1040E00000D451E728780007C00FFFF7A9FE4BE77F
:1040F00023786A4999468B46694B6A4998468A46AD
:1041000039001A7847460023B04600254E468946B6
:1041100010E053461B686A019B18002B00D176E023
:10412000DB68300098473A780135EDB2511C2B001E
:104130008D4244DC9542ECD39B1A5B015B44EFE774
:10414000237858499946564B8A4698463100BB46D3
:104150004E461A7800250023474689460FE053460D
:104160001B686A019B18002B55D0DB68300098470C
:104170003A780135EDB2511C2B008D4207DC954297
:10418000EDD39B1A009A5B0194466344EDE7019DD1
:10419000542200212800FEF731FF1022FF2144485D
:1041A000FEF72CFF28002022FF2114304E465F46E8
:1041B000FEF724FF00F0F2FBFFF740FEE4E6364D89
:1041C000542200212800FEF719FF1022FF21281D8C
:1041D000FEF714FF28002022FF21143046464F46E8
:1041E000FEF70CFF00F0DAFB2379AB70CCE6501C35
:1041F000984213DA11B0F0BCBB46B246A946A046BD
:10420000F0BDA3686279207800F0E6FBBCE6464684
:104210004F46214DE6E74E465F46CBE71F4D9B1AC2
:104220005B015D19FAE67023217A0B4218D1C809A7
:1042300082460F330B405B0098461948EB185344F5
:104240001B7D00789946834266D216485B01006860
:1042500081469944002A00D15FE14B46002B68D18A
:1042600020780021FFF76AFD80212078FFF766FDA6
:104270008AE6104800F09CFB012158460EAAFFF781
:10428000CDF8002800D07FE6EAE7C046443400209D
:10429000FC6C001038410020E0400020A46D0010AC
:1042A000AD4B0020303F0020AF4B0020206D0010B0
:1042B000E44000201D340010237A0F2BD0D8CF4AC1
:1042C000EB181B791578AB423ED3691C9942C7DBCA
:1042D0005D1BCB4B6D01ED18686900F069FB012196
:1042E00058466B690EAA9847002800D04CE6602219
:1042F000150023791D401A42B2D163790A3B012B84
:10430000AED800F055FB63790A2B00D199E15846ED
:104310000EA900F0D9FA37E6431C4B4500DAF7E066
:104320004B461B1A5B019946B5488144002A00D1CF
:10433000F3E04B46586900F03BFB4B4601215846E1
:104340005B690EAA98479CE7AE4A5B011568ED18B9
:10435000002DC1D184E7A37999466B789945D6D0D1
:104360006B78002B00D033E14B466B70002B00D1F3
:104370002BE148460138C0B2FFF792FA002800D17D
:104380007EE143780793022B00D079E10122C179C5
:10439000B1468B11491113400A40302112015B01D3
:1043A00013432A78A8468A4313432B7009239A465D
:1043B00082445646BA46C37882781B021343C31818
:1043C00005938E4B04938E4B08938E4B09938E4B23
:1043D0000A93059BB34200D855E1737801220B2B59
:1043E00003D13378F278F6187378042B00D044E1C7
:1043F000059B00279B1B9BB20693049B0B921D7889
:10440000002303931BE0099A7B011568ED18002D2A
:1044100000D132E1310058462B69069A984784460C
:10442000082803D9069A824200D313E1049B01377E
:104430001D78FFB26B1C03979F4200DD1DE1BD425A
:10444000E1D8039B5D1B089B6D019C466544E1E739
:104450006B780CAA02321370584601230EA900F0A3
:1044600049FA91E5E3881A0AD8B20F2A00D9F7E68B
:1044700066499300CB589F460EA800F09FFA584615
:10448000A179FFF795FB02222B7813432B707BE574
:10449000E388012B00D0E3E608222B7858469343AB
:1044A0000EA92B7000F010FA6EE5022029780CABF3
:1044B0009A1C8B068908DB0F01400B43138058467A
:1044C00002230EA900F016FA5EE5E388012B00D066
:1044D000C6E608222B7813432B7018E7237A0F2B9C
:1044E00000D9BDE6EB181D79444B1B789D4228D2BC
:1044F000444B6D011B685D19002D00D1B0E6686961
:1045000000F056FA012158466B690EAA9847B8E6A2
:10451000002A00D0A4E60023994662790220130005
:1045200003928343012B15D0002A00D098E62B007C
:104530004344534430331B790CAA9B07DB0F0232F0
:10454000BCE75A1CAA4200DA8AE6ED1A2C4B6D0130
:10455000ED18D4E7E388002B12D1029B1878039B57
:10456000012B23D0FFF7EAFB43460221EB1853440B
:1045700030331A790A4301211A711A790A431A71E0
:104580004B46002B00D1FFE4586900F011FA4B466E
:1045900001215B690EAA58469847002000F008FAEE
:1045A0003523EB5CDB0700D5EEE4B0E6FFF7E4FB78
:1045B00043460221EB18534430331A798A431A7167
:1045C0001A7903998A431A71DAE7FFF737FC9EE6F6
:1045D00000215846FFF7F6FA5846FFF799FBAB78EB
:1045E000074903930491054B064998461A780591AB
:1045F000002329001D008A461BE0C046AD4B002069
:10460000A46D0010303F0020F4400020486D0010E1
:10461000059B6A011B689B18002B4DD0DB68584630
:10462000984743461A780135EDB2511C2B008D4254
:104630002EDC9542ECD39B1A049A5B0194466344AA
:10464000ECE70CAB9A1C584601230EA9157000F03C
:1046500051F999E40B9A012A4FD0002A3CD000234B
:10466000B07804E00133DBB20F71934234D2C11849
:10467000C9B241440D79FF2DF4D04E464546574608
:1046800000236B70ECE54E465746FFF7D5FB3EE640
:104690005546542200212800FEF7B0FC1022FF21CD
:1046A000281DFEF7ABFC28002022FF211430FEF766
:1046B000A5FC039BAB7057E65546FAE7FEF7AAFE4A
:1046C000021E00D1CCE5D37891781B020B435846EB
:1046D0000EA900F00FF9D4E565463B002A00310031
:1046E0000A9800F07FFEAC46049B039A1B78664450
:1046F0000133934200DB6CE6BFE7174B296999420F
:10470000ADD1079AABE7FFF793FB021E00D1A7E5F7
:10471000584613780EA900F0EDF8B2E52189FFF7AD
:10472000C3F8021EF4D19BE5022A0FD0FFF782FBEB
:10473000021EC8D194E5FFF7AFF8021E00D18FE545
:10474000122358460EA900F0D5F89AE5FFF7A8F80D
:10475000021EB8D184E5C046AD4D0010F8B55746ED
:104760004E46DE4645460C00E0B516001F00002A06
:104770003CD0702398461E4B00259B461D4B9A4605
:104780001AE05B461B78200099465346997800F062
:10479000EBFD00281CD021004846FFF72FFA002827
:1047A00016D0A378DA09012A19D00A9A01351370B4
:1047B0002378E418B54219DA6378052B08D1E37839
:1047C0009B079B0FBB4203D14246A3781A42D8D025
:1047D0000020F0BCBB46B246A946A046F8BD0B9AE5
:1047E000013513702378E418B542E5DB0120F0E7CA
:1047F00044340020E0400020702270B58B780C001B
:104800001A4201D0002070BD064B20001D78064BD7
:10481000997800F0A9FD0028F4D021002800FFF7C6
:10482000EDF9F0E744340020E04000200B007F2049
:1048300010B51840DB0934334000044AC018044B5B
:104840001168C01800F04CFD10BDC0463441002076
:10485000E04000200B007F2010B51840DB09343306
:104860004000044AC018044B1168C01800F060FDF5
:1048700010BDC04634410020E040002070B57F24C8
:104880000F480C4064000419CD09641930342079B4
:10489000C00701D5002070BD0126257909483543A0
:1048A00000782571FFF738FA0028F4D10122237926
:1048B000934323712379033293432371EAE7C0467C
:1048C000E04000204434002070B5094C0600082266
:1048D00020000D00FEF798FB00238021E360A36019
:1048E0002B783000994300220023FFF7C7FF70BDEB
:1048F000C0400020F8B5CE4647469046254E80B5CC
:104900008146082230000D001F00FEF77DFB434664
:10491000B3600023F381EC79AB7924021C43231CA0
:10492000BC4200D93B1C9FB2B381002C0DD0002F9C
:1049300017D04246002A2BD0402F1BD89FB2337885
:104940007F2B1CD80021144A0FE080212B780022F5
:10495000994348460023FFF791FFC0BCB946B046D3
:10496000F8BD7F230022317899433B004846FFF78A
:1049700085FFF2E740239FB233787F2BE2D9064CC4
:104980003A0041462000FEF73FFB80212200ECE781
:104990000020E2E7C04000208040002010B5142233
:1049A00000210248FEF72AFB10BDC046C04000208F
:1049B000014B18617047C046C040002010B5054C3F
:1049C000010008222000FEF71FFB0023A360E36024
:1049D00010BDC046C040002070B5384C1D00237883
:1049E0000600DA09C9098A4210D00020002D00D043
:1049F00070BD21003000FFF7F3F82369002B03D0CE
:104A000022000321300098470120F1E77F2B06D8D0
:104A1000A068002834D02A002949FEF7F5FAE28977
:104A2000A1685219E38892B24919E281A1609342C8
:104A300014D03F2D12D9A389981A051C80B24028A2
:104A40002AD82078ADB27F2828D800219A4232D0C7
:104A50001B4A2B003000FFF711FFC9E72369002B29
:104A600005D0220002213000984700280AD080217A
:104A700023780022994330000023FFF7FFFEB7E7B9
:104A80000020B5E700213000FFF758F93000802101
:104A9000FFF754F90120ABE74025D2E79A4207D04F
:104AA000074C2A002000FEF7AFFA80212200D0E751
:104AB00080210022CDE70022CBE7C046C040002085
:104AC0008040002070B50400FFF7BEF9002800D137
:104AD00070BDFFF7C1F90028FAD1C8236343124D16
:104AE000EE18F1780029F3D010335D19280000F09A
:104AF000F3FD3F28ECD90020F178FFF797FE00285E
:104B0000E6D0280000F0E8FDF1783F2807D9074BF0
:104B1000E201D21800204023FFF7B0FED8E70020C2
:104B2000FFF798FED4E7C046B83F0020343F00208E
:104B300010B50400FFF788F9002801D1002010BD4E
:104B4000FFF78AF90028F9D1C8226243024B0130ED
:104B50009B181B791840F2E7B83F0020C82310B516
:104B600043430248181800F099FD10BDC83F0020CB
:104B7000F8B5C824802344431C4F103405003C1969
:104B80005B029A4200D31A4A200092B200F008FE5B
:104B90000600FFF759F9002801D13000F8BDFFF7F2
:104BA0005BF90028F9D1C8236B43FF18FB78002B71
:104BB000F3D0200000F090FD3F28EED90020F978D6
:104BC000FFF734FE0028E8D0200000F085FDF978DA
:104BD0003F2807D9074BEA01D21800204023FFF7EE
:104BE0004DFEDAE70020FFF735FED6E7B83F00209C
:104BF000FFFF0000343F0020F8B50400FFF724F960
:104C0000002801D10020F8BDFFF726F90028F9D1CE
:104C1000C82565432E00134F2436F619300000F0E6
:104C20003DFD0028EED07F190020B978FFF7FEFD8A
:104C30000028E7D00C4DE40165192900402230001E
:104C400000F0AEFDB978041E08D003002A00002051
:104C5000FFF714FE0028D5D02000D4E70020FFF78E
:104C6000F9FDCFE7B83F0020743F002070B5C8249D
:104C700044430C4B0500E41880235B029A4200D3A6
:104C8000094A200092B200F051FE0600200000F018
:104C900005FD3F2801D8300070BD2800FFF7ACFFAC
:104CA000F9E7C046DC3F0020FFFF0000C82310B535
:104CB00043430248181800F00FFD10BDDC3F0020F0
:104CC000F0B50025184C83B0C82200212000FEF763
:104CD00095F9164B21001D70FF236371E1235B02E0
:104CE000A360200008234022A37338310095073BBE
:104CF000103000F09DFC2700012321002000260039
:104D0000402278310093B837243000F091FCC0364F
:104D10003800FCF70DFE3000FCF70AFEE561276263
:104D20002663656303B0F0BDB83F0020B43F0020A8
:104D30000A4A116B136A00290CD0002B07D00023FC
:104D4000D3615363136300231362012070475363DD
:104D50001363FAE7002BF8D0D161F4E7B83F0020E5
:104D600070B50F4C052200212000FEF747F90D4DCC
:104D70002B78DA0707D50C4C9B070CD501212000B6
:104D800000F0B0FE70BD2000103000F08BFE2B78DC
:104D9000054C9B07F2D4200000F084FEEEE7C046ED
:104DA000B83F0020B43F0020DC3F0020F0B54B7935
:104DB000060083B0022B02D18B79022B03D0002591
:104DC000280003B0F0BD204FBB78002BF7D18B78C3
:104DD00009253B700C780C196378242B07D00CE064
:104DE0002378E4185D196378ADB2242B05D1954280
:104DF000F6D90020FFF766FEE2E71A00052B15D072
:104E0000042AF6D163790A2BF3D1104B277801934A
:104E10000133009330000223E119023AFFF79EFCB0
:104E20000028CCD00E35ED19ADB2E2E721003000FC
:104E3000FFF7E2FC0028C2D0A3787B7023785D19CD
:104E4000E4186278ADB2DBE7B83F0020BA3F00203B
:104E5000F8B5602314001278050013400020202BC1
:104E600007D1304A6379277916781B023B439E426B
:104E700000D0F8BD6378222B1AD007D8202B34D06D
:104E8000212BF6D101293ED00120F2E7232BF0D1CE
:104E9000012940D00329F7D1234B002BF4D0E1782E
:104EA000A37809020020194300E000BF0120E0E7D9
:104EB000012930D00329E7D101252E00A378E47819
:104EC000023924021C431471264024321000714020
:104ED00000F008FE154B002BD6D0620800203100F0
:104EE0002A4000E000BF0120C3E701290BD00329BD
:104EF000CAD10F4B002BC7D0083200201100FEF79B
:104F0000ADFA0120B5E7072321002800094AFFF781
:104F1000F1FC0120ADE721002800FFF7D5FC0120BE
:104F2000A7E7C046B83F00200000000000000000D6
:104F30005D340010C03F0020F0B54F464646D646CF
:104F4000C0B5364D8046EA780C001F008A423CD03E
:104F5000AB788B4210D00020E0BCBA46B146A846E0
:104F6000F0BD2F4B002B04D02E4800F0ADFB0028E5
:104F700051D00020FFF7A6FDAB78A34201D001205D
:104F8000EAE7294B002B02D0002000E000BF002000
:104F9000FFF732FE0028F2D1244C200000F07EFB07
:104FA0000028ECD1002FEAD0BF06E8D1243C4046CF
:104FB000A178FFF73BFC0028E1D000230022404607
:104FC000A178FFF75BFC0120C6E79AB210239A464E
:104FD000174EAA443100504600F0A8FC154B002B98
:104FE000BFD06B79FF2BBCD0002FBAD0F2199146FD
:104FF00003E001364E45B4D06B7932789A42F8D14D
:10500000504600F061FB0028F3D15346103B59791C
:1050100000E000BFEDE700E000BFAAE7B83F0020D6
:1050200000000000C83F002000000000DC3F00201E
:10503000343F0020000000009322F0B5134C85B0EF
:10504000002120009200FDF7D9FF230020008026D8
:1050500040270F4D4D337600FF33293002950093E2
:1050600000220023002103970196FF3000F0D4F9BD
:105070004035201D2834002301220021039702958A
:105080000196009400F0C8F905B0F0BD84420020FC
:105090000442002010B5054C200000F0F3F9200078
:1050A0002538FF3800F0EEF9012010BDAC43002098
:1050B00070B5084C002520003130FF30257000F01D
:1050C000F1FC20000C3000F0EDFC2A23FF33E55406
:1050D000657170BD84420020F8B557464546DE46EE
:1050E0004E46E0B54B7980460F00FF2B5BD1404B1D
:1050F00099462A234946FF33CB5C002B53D14E7986
:10510000002E50D1BB783C780B703B793C19002BBA
:1051100046D098235B004B449A460C234B449B4655
:10512000A51803E0AC423BD22378E4186378052B42
:10513000F8D1AC4234D221004046FFF75DFB002895
:1051400031D0A3780136F6B2DB09012B32D05046BC
:1051500000F0A8FC2A234946A278FF33CA54637999
:1051600022791B021343234A5B0594465B0D94216D
:1051700063445A4253414A4602204900525C5B0054
:10518000824313434A46535451464046083900F07F
:10519000E3F9002807D02378E4183B79B342C5D857
:1051A000E01B80B200E00020F0BCBB46B246A9463E
:1051B000A046F8BD584600F075FC5A46A3780C3A54
:1051C0005371637921791B020B430A495B058C46B5
:1051D0005B0D634459424B41022011795B008143CE
:1051E0000B43594600200839137100F081F9D2E7CA
:1051F0008442002000FEFFFFF8B52A2506001F4864
:10520000FF35455D1F008D4215D043798B4201D09B
:105210000020F8BD1A4B002B04D039040020090CE3
:1052200000E000BF174C3000210000F061F90028B9
:105230001DD00120EDE79A235B00C35A002B0DD14E
:10524000114B002B04D000201049BAB200E000BF7F
:1052500030000F4900F080F90120DAE796235B0067
:10526000C1583130BAB2FF3000F060FBE8E73A00D5
:105270002100300000F008F90120CAE78442002034
:1052800000000000884200200000000004420020CE
:10529000AC43002000B5030083B0002910D00020EB
:1052A000012B07D80A78002A04D00C48C2540120E8
:1052B000012A01D003B000BD1800FEF7D5FDF9E7C3
:1052C00001236A46002001A99380FEF7CDFD002846
:1052D000F0D00122014B1A70ECE7C046D440002008
:1052E000037870B5DB0704000E00DD0F002B17D12B
:1052F00003785B0701D5280070BD012130004942C9
:1053000001F02AFA2378DB07DD0F002B0AD123787E
:105310005B0708D40422237801251343237002E09D
:105320000025E8E70025300001F0FEF9E3E7C0467C
:1053300070B50C00012106004942200001F00CFA72
:1053400033785B07DD0F002B04DB200001F0ECF964
:10535000280070BD3378DB0704D4042233789343EC
:105360003370F2E70025F0E7437902791B0213431B
:10537000C2785B0592075B0D920F022A1DD0032AAB
:105380000CD00020012A08D102394A425141124A68
:105390009446614499424041C0B2704702394A1E66
:1053A00091410E4A494211408022D2009446002089
:1053B000614499424041C0B2EFE7022905D0002084
:1053C00040229A424041C0B2E7E7054A981843425A
:1053D0005841C0B2E1E7C046FF03000040FCFFFFB8
:1053E00000FEFFFF8A1870B5914207D27F264C78E5
:1053F000052C04D00C7809198A42F8D870BD340005
:105400008D782C4064000419ED0963550C78091956
:105410008A42ECD8F2E7C046F0B5C64600B582B085
:10542000150008AA40CA040017886A46928D012018
:1054300090460A00217802408143200011432170E8
:105440003A00009331000123083000F0F1F8002EFB
:1054500001D0002F08D10A9B01206360434663807E
:1054600002B080BCB846F0BD26001C363000FCF708
:105470005FFA0023002D01D0330000266361A6618E
:10548000E9E7C04601207047F8B502240B78070011
:105490001C4063425C41144B64421C40134B0800A7
:1054A0009C4608300D001600644400F0F7F8002810
:1054B00007D1002E05D0344203D101242B781C42A1
:1054C00001D00020F8BD38006978FFF7AFF9002857
:1054D000F7D02B781C42F4D10023002238006978E1
:1054E000FFF7CCF9EEE7C04640FEFFFFFF010000EA
:1054F000F8B50D000835060028000C0000F0CEF8C5
:10550000002803D0012723781F4201D00020F8BDD6
:1055100030006178FFF78AF90028F7D02800628808
:10552000616800F03DF9237805001F4000280BD08A
:10553000002FEBD10300626830006178FFF79EF91D
:105540000028E3D02800E2E7002FDFD130006178A7
:10555000FFF780F9DAE7C046F8B5CE46474680B592
:105560008A8906000C000B78002A07D101251D420C
:1055700040D00020C0BCB946B046F8BD9B0733D42C
:105580002A4B4025994627000837380000F0A4F838
:105590008542EED80122237890461A42E9D13000A4
:1055A0006178FFF743F90028E3D0380000F094F861
:1055B000424623781A40854231D8002AD9D14A463A
:1055C000638802401D1C934200D9151CADB2002215
:1055D0006178002D00D062682B003000FFF74EF993
:1055E0000028C6D02800C5E7FE2380251B02994667
:1055F000AD00C8E74978FFF719F90028B9D023783A
:105600001D42B6D1638800226178002B00D0626809
:105610003000FFF733F90028ABD06088AAE7002AF2
:10562000A7D130006178FFF715F9A2E7C0FF0000AD
:10563000F0B5C64600B504006846057E8020884661
:1056400017001E000002824226D8E068002803D01E
:105650000121494201F080F82069002803D001218E
:10566000494201F079F84346236073045B0CED0373
:105670001D430023E0686381A780E5802381002823
:1056800001D001F051F82069002801D001F04CF858
:10569000012080BCB846F0BD0020FAE710B50489AF
:1056A00041898288A3B288B28C4207D31B1A9BB26D
:1056B000101C9A4200D9181C80B210BD5100091A62
:1056C0005B189BB2F4E7C04603894089181A43422D
:1056D0005841C0B27047C04610B5048941898288DC
:1056E000A3B288B28C4207D31B1A9BB200209A4205
:1056F00001D9D21A90B210BD5100091A5B189BB2A1
:10570000F4E7C04670B5040000690E00002803D01D
:105710000121494201F020F825896089A288A9B2B7
:1057200083B2854232D3CD1AADB2002D28D0AA4221
:1057300008D291422FD3891A8BB263819A4203D83F
:105740009B1A9BB29A42FBD9E28821685204520C00
:1057500053433000C918FDF757FC63890125591CD4
:1057600089B2A2888B420DD900215200891A89B2D0
:1057700020696181002801D000F0D6FF280070BDAB
:10578000618989B252009142F2DBEFE75500ED1AD0
:105790004D19ADB2C9E789188BB26381CEE7C04617
:1057A000F0B546464F46D646C0B506000069894664
:1057B0009046002803D00121494200F0CDFF3189F5
:1057C0007289B5888BB294B2914254D31F1BBFB279
:1057D000002F4AD0BD4205D2AB4251D25B199CB2D8
:1057E0002F0074814346B8453DD89FB2A54203D8E7
:1057F000641BA4B2A542FBD9F28831685204520C52
:10580000904662432B1B9BB2891842469F4225D982
:1058100053439BB21A0048469A46FDF7F5FB4346B0
:1058200048467D1B64195C4331685044A2B2FDF7C1
:10583000EBFB7189B588CB199BB26A00994216D9E6
:105840009B1A9BB230697381002801D000F06CFF75
:105850003800E0BCBA46B146A846F0BD48467A4397
:10586000FDF7D2FBE5E73B1CBFE773899BB26A00FB
:105870009342E7DBE4E76F003F1BDF19BFB2A7E706
:105880005B1B9CB2ACE7C046F8B50400C0680E00D4
:10589000002803D00121494200F05EFF25892089BC
:1058A0006189A288ADB283B28FB2884229D3DB1B53
:1058B0009BB29A4209D8E779FF0906D1E06800282F
:1058C00001D000F031FF3800F8BD2B0095421DD308
:1058D0009B1A9BB29342FBD2E28820685204520C7E
:1058E00053433100C018FDF78FFB6B1C9BB2A2889D
:1058F0009D4217D9002352009B1A9BB20127238196
:10590000DCE75100C91B5B189BB2D2E7E288206834
:105910005204520C53433100C018FDF775FB01359A
:10592000A288ABB252009342E8DBE5E7F0B54E4601
:105930005746DE464546E0B589460600170083B067
:10594000002A67D0C068002803D00121494200F036
:1059500003FF3389F2799BB298467389B5889BB26D
:10596000D20940D198455ED26A00D31A43449BB213
:10597000AB425DD2EB1A1A1C9BB2BB4200D93A1C57
:1059800097B27B1B9BB20193F3885B045B0C9A4636
:105990004346DB199BB29B464446A84503D3641B90
:1059A000A4B2AC42FBD25346634330682D1BADB268
:1059B000C018BD424BD3524649467A43FDF724FBFB
:1059C000B3885B00D84501D89B4503DB5A46D31A00
:1059D0009BB29B465B463D003381F06800281AD09D
:1059E00000F0A2FE17E0F2885204520C9246AF4239
:1059F00020D298454DD34246D21A92B26900781B04
:105A000080B2D21901908A4233DA4346FB189BB226
:105A10009B46C1E70025280003B0F0BCBB46B24658
:105A2000A946A046F0BD4246D31A9BB2AB42A1D3D1
:105A30000025D2E7002DD0D07F1B574398465A1936
:105A4000002392B2B94493462F000193A4E7534632
:105A50005D43ADB22A004946FDF7D6FA019B290005
:105A6000E21853465A43306892B24944FDF7CCFAE3
:105A7000A6E75A1992B29346D21B92B2904693422D
:105A80000CD94346591A8BB29846FB189BB29B46D9
:105A900082E76900CA1A424492B2B0E7914200DD3F
:105AA0007AE7EEE710B50400C068002803D00121B2
:105AB000494200F051FE2069002803D001214942EB
:105AC00000F04AFE0023E06863812381002801D0B2
:105AD00000F02AFE2069002801D000F025FE0120F8
